{
  "contractName": "NFTResolver",
  "abi": [
    {
      "inputs": [
        {
          "internalType": "address",
          "name": "contract_add",
          "type": "address"
        }
      ],
      "name": "checker",
      "outputs": [
        {
          "internalType": "bool",
          "name": "canExec",
          "type": "bool"
        },
        {
          "internalType": "bytes",
          "name": "execPayload",
          "type": "bytes"
        }
      ],
      "stateMutability": "view",
      "type": "function",
      "constant": true
    }
  ],
  "bytecode": "0x608060405234801561001057600080fd5b506109dd806100206000396000f3fe608060405234801561001057600080fd5b506004361061002b5760003560e01c8063016c683c14610030575b600080fd5b61004a600480360381019061004591906105a9565b610061565b60405161005892919061068a565b60405180910390f35b6000606060008373ffffffffffffffffffffffffffffffffffffffff16637ee454cb6040518163ffffffff1660e01b8152600401600060405180830381865afa1580156100b2573d6000803e3d6000fd5b505050506040513d6000823e3d601f19601f820116820180604052508101906100db9190610838565b905060005b815181101561052f5760005b8573ffffffffffffffffffffffffffffffffffffffff1663f5a6512084848151811061011b5761011a610881565b5b60200260200101516040518263ffffffff1660e01b815260040161013f91906108bf565b602060405180830381865afa15801561015c573d6000803e3d6000fd5b505050506040513d601f19601f8201168201806040525081019061018091906108da565b81101561051b57428673ffffffffffffffffffffffffffffffffffffffff16637fc5a60f8585815181106101b7576101b6610881565b5b60200260200101518973ffffffffffffffffffffffffffffffffffffffff16635ccdfa5e8888815181106101ee576101ed610881565b5b6020026020010151876040518363ffffffff1660e01b8152600401610214929190610907565b602060405180830381865afa158015610231573d6000803e3d6000fd5b505050506040513d601f19601f8201168201806040525081019061025591906108da565b6040518363ffffffff1660e01b8152600401610272929190610907565b602060405180830381865afa15801561028f573d6000803e3d6000fd5b505050506040513d601f19601f820116820180604052508101906102b391906108da565b1080156103ea575060028673ffffffffffffffffffffffffffffffffffffffff1663a745da658585815181106102ec576102eb610881565b5b60200260200101518973ffffffffffffffffffffffffffffffffffffffff16635ccdfa5e88888151811061032357610322610881565b5b6020026020010151876040518363ffffffff1660e01b8152600401610349929190610907565b602060405180830381865afa158015610366573d6000803e3d6000fd5b505050506040513d601f19601f8201168201806040525081019061038a91906108da565b6040518363ffffffff1660e01b81526004016103a7929190610907565b602060405180830381865afa1580156103c4573d6000803e3d6000fd5b505050506040513d601f19601f820116820180604052508101906103e891906108da565b145b15610508576342966c6860e01b8673ffffffffffffffffffffffffffffffffffffffff16635ccdfa5e85858151811061042657610425610881565b5b6020026020010151846040518363ffffffff1660e01b815260040161044c929190610907565b602060405180830381865afa158015610469573d6000803e3d6000fd5b505050506040513d601f19601f8201168201806040525081019061048d91906108da565b60405160240161049d91906108bf565b604051602081830303815290604052907bffffffffffffffffffffffffffffffffffffffffffffffffffffffff19166020820180517bffffffffffffffffffffffffffffffffffffffffffffffffffffffff8381831617835250505050935060019450505050610532565b80806105139061095f565b9150506100ec565b5080806105279061095f565b9150506100e0565b50505b915091565b6000604051905090565b600080fd5b600080fd5b600073ffffffffffffffffffffffffffffffffffffffff82169050919050565b60006105768261054b565b9050919050565b6105868161056b565b811461059157600080fd5b50565b6000813590506105a38161057d565b92915050565b6000602082840312156105bf576105be610541565b5b60006105cd84828501610594565b91505092915050565b60008115159050919050565b6105eb816105d6565b82525050565b600081519050919050565b600082825260208201905092915050565b60005b8381101561062b578082015181840152602081019050610610565b8381111561063a576000848401525b50505050565b6000601f19601f8301169050919050565b600061065c826105f1565b61066681856105fc565b935061067681856020860161060d565b61067f81610640565b840191505092915050565b600060408201905061069f60008301856105e2565b81810360208301526106b18184610651565b90509392505050565b600080fd5b7f4e487b7100000000000000000000000000000000000000000000000000000000600052604160045260246000fd5b6106f782610640565b810181811067ffffffffffffffff82111715610716576107156106bf565b5b80604052505050565b6000610729610537565b905061073582826106ee565b919050565b600067ffffffffffffffff821115610755576107546106bf565b5b602082029050602081019050919050565b600080fd5b6000819050919050565b61077e8161076b565b811461078957600080fd5b50565b60008151905061079b81610775565b92915050565b60006107b46107af8461073a565b61071f565b905080838252602082019050602084028301858111156107d7576107d6610766565b5b835b8181101561080057806107ec888261078c565b8452602084019350506020810190506107d9565b5050509392505050565b600082601f83011261081f5761081e6106ba565b5b815161082f8482602086016107a1565b91505092915050565b60006020828403121561084e5761084d610541565b5b600082015167ffffffffffffffff81111561086c5761086b610546565b5b6108788482850161080a565b91505092915050565b7f4e487b7100000000000000000000000000000000000000000000000000000000600052603260045260246000fd5b6108b98161076b565b82525050565b60006020820190506108d460008301846108b0565b92915050565b6000602082840312156108f0576108ef610541565b5b60006108fe8482850161078c565b91505092915050565b600060408201905061091c60008301856108b0565b61092960208301846108b0565b9392505050565b7f4e487b7100000000000000000000000000000000000000000000000000000000600052601160045260246000fd5b600061096a8261076b565b91507fffffffffffffffffffffffffffffffffffffffffffffffffffffffffffffffff820361099c5761099b610930565b5b60018201905091905056fea26469706673582212207b0150e4438a444de4d805d358095a0cac70fd6e8048bdc3d25407e9c46d99cf64736f6c634300080f0033",
  "immutableReferences": {},
  "source": "//SPDX-License-Identifier: GPL-3.0\r\npragma solidity ^0.8.0;\r\n\r\ninterface INFTWarranty {\r\n    function getSellerNFTs(uint256 sellerId)\r\n        external\r\n        view\r\n        returns (uint256[] memory);\r\n\r\n    function getSellers() external view returns (uint256[] memory);\r\n\r\n    function getExpiry(uint256 sellerId, uint256 tokenId)\r\n        external\r\n        view\r\n        returns (uint256 expiry);\r\n\r\n    function getCreation(uint256 sellerId, uint256 tokenId)\r\n        external\r\n        view\r\n        returns (uint256 creation);\r\n\r\n    function getStatus(uint256 sellerId, uint256 tokenId)\r\n        external\r\n        view\r\n        returns (uint256 stat);\r\n        function getSellerNFT(uint256 sellerId,uint256 Index)external view returns(uint256);\r\n        function getSellerNFTSize(uint256 sellerId)external view returns(uint256);\r\n\r\n    function burn(uint256 tokenId) external;\r\n}\r\n\r\ncontract NFTResolver {\r\n    function checker(address contract_add)\r\n        external\r\n        view\r\n        returns (bool canExec, bytes memory execPayload)\r\n    // returns(uint256 []  memory arr)\r\n    {\r\n        uint256[] memory ans = INFTWarranty(contract_add).getSellers();\r\n        for (uint256 i = 0; i < ans.length; i++) {\r\n\r\n            for (uint256 j = 0; j <  INFTWarranty(contract_add).getSellerNFTSize(ans[i]); j++) {\r\n                //uint256 creationTime =  INFTWarranty(contract_add).getCreation(ans[i],nfts[i]);\r\n                if (\r\n                    (INFTWarranty(contract_add).getExpiry(ans[i],INFTWarranty(contract_add).getSellerNFT(ans[i],j) ) <\r\n                        block.timestamp) &&\r\n                    (INFTWarranty(contract_add).getStatus(ans[i], INFTWarranty(contract_add).getSellerNFT(ans[i],j)) == 2)\r\n                ) {\r\n                    execPayload = abi.encodeWithSelector(\r\n                        INFTWarranty.burn.selector,\r\n                        uint256(INFTWarranty(contract_add).getSellerNFT(ans[i],j))\r\n                    );\r\n                    return (true, execPayload);\r\n                }\r\n                // if (\r\n                //     INFTWarranty(contract_add).getExpiry(ans[i], INFTWarranty(contract_add).getSellerNFT(ans[i],j)) >\r\n                //     block.timestamp ||\r\n                //     INFTWarranty(contract_add).getStatus(ans[i], INFTWarranty(contract_add).getSellerNFT(ans[i],j)) ==\r\n                //     0 ||\r\n                //     INFTWarranty(contract_add).getStatus(ans[i], INFTWarranty(contract_add).getSellerNFT(ans[i],j)) ==\r\n                //     1 ||\r\n                //     INFTWarranty(contract_add).getStatus(ans[i], INFTWarranty(contract_add).getSellerNFT(ans[i],j)) == 3\r\n                // ) {\r\n                //     return (false, bytes(\"Session is ongoing\"));\r\n                // }\r\n            }\r\n        }\r\n    }\r\n}\r\n",
  "sourcePath": "D:\\OpenSource\\BlockChain\\Projects\\nft-warranty-market\\contracts\\NFTResolver.sol",
  "compiler": {
    "name": "solc",
    "version": "0.8.15+commit.e14f2714.Emscripten.clang"
  },
  "schemaVersion": "3.4.8",
  "updatedAt": "2022-07-31T13:37:46.258Z",
  "networkType": "ethereum",
  "devdoc": {
    "kind": "dev",
    "methods": {},
    "version": 1
  },
  "userdoc": {
    "kind": "user",
    "methods": {},
    "version": 1
  }
}