{
  "contractName": "NFTWarranty",
  "abi": [
    {
      "inputs": [],
      "stateMutability": "nonpayable",
      "type": "constructor"
    },
    {
      "anonymous": false,
      "inputs": [
        {
          "indexed": true,
          "internalType": "address",
          "name": "owner",
          "type": "address"
        },
        {
          "indexed": true,
          "internalType": "address",
          "name": "approved",
          "type": "address"
        },
        {
          "indexed": true,
          "internalType": "uint256",
          "name": "tokenId",
          "type": "uint256"
        }
      ],
      "name": "Approval",
      "type": "event"
    },
    {
      "anonymous": false,
      "inputs": [
        {
          "indexed": true,
          "internalType": "address",
          "name": "owner",
          "type": "address"
        },
        {
          "indexed": true,
          "internalType": "address",
          "name": "operator",
          "type": "address"
        },
        {
          "indexed": false,
          "internalType": "bool",
          "name": "approved",
          "type": "bool"
        }
      ],
      "name": "ApprovalForAll",
      "type": "event"
    },
    {
      "anonymous": false,
      "inputs": [
        {
          "indexed": true,
          "internalType": "address",
          "name": "from",
          "type": "address"
        },
        {
          "indexed": true,
          "internalType": "address",
          "name": "to",
          "type": "address"
        },
        {
          "indexed": true,
          "internalType": "uint256",
          "name": "tokenId",
          "type": "uint256"
        }
      ],
      "name": "Transfer",
      "type": "event"
    },
    {
      "inputs": [
        {
          "internalType": "address",
          "name": "",
          "type": "address"
        }
      ],
      "name": "addressToSellerId",
      "outputs": [
        {
          "internalType": "uint256",
          "name": "",
          "type": "uint256"
        }
      ],
      "stateMutability": "view",
      "type": "function"
    },
    {
      "inputs": [
        {
          "internalType": "uint256",
          "name": "",
          "type": "uint256"
        }
      ],
      "name": "allSellers",
      "outputs": [
        {
          "internalType": "uint256",
          "name": "id",
          "type": "uint256"
        },
        {
          "internalType": "uint256",
          "name": "itemCounter",
          "type": "uint256"
        },
        {
          "internalType": "address",
          "name": "owner",
          "type": "address"
        }
      ],
      "stateMutability": "view",
      "type": "function"
    },
    {
      "inputs": [
        {
          "internalType": "address",
          "name": "to",
          "type": "address"
        },
        {
          "internalType": "uint256",
          "name": "tokenId",
          "type": "uint256"
        }
      ],
      "name": "approve",
      "outputs": [],
      "stateMutability": "nonpayable",
      "type": "function"
    },
    {
      "inputs": [
        {
          "internalType": "address",
          "name": "owner",
          "type": "address"
        }
      ],
      "name": "balanceOf",
      "outputs": [
        {
          "internalType": "uint256",
          "name": "",
          "type": "uint256"
        }
      ],
      "stateMutability": "view",
      "type": "function"
    },
    {
      "inputs": [
        {
          "internalType": "address",
          "name": "",
          "type": "address"
        },
        {
          "internalType": "uint256",
          "name": "",
          "type": "uint256"
        }
      ],
      "name": "buyersCollection",
      "outputs": [
        {
          "internalType": "uint256",
          "name": "",
          "type": "uint256"
        }
      ],
      "stateMutability": "view",
      "type": "function"
    },
    {
      "inputs": [
        {
          "internalType": "address",
          "name": "",
          "type": "address"
        }
      ],
      "name": "buyersCount",
      "outputs": [
        {
          "internalType": "uint256",
          "name": "",
          "type": "uint256"
        }
      ],
      "stateMutability": "view",
      "type": "function"
    },
    {
      "inputs": [
        {
          "internalType": "uint256",
          "name": "tokenId",
          "type": "uint256"
        }
      ],
      "name": "getApproved",
      "outputs": [
        {
          "internalType": "address",
          "name": "",
          "type": "address"
        }
      ],
      "stateMutability": "view",
      "type": "function"
    },
    {
      "inputs": [
        {
          "internalType": "address",
          "name": "owner",
          "type": "address"
        },
        {
          "internalType": "address",
          "name": "operator",
          "type": "address"
        }
      ],
      "name": "isApprovedForAll",
      "outputs": [
        {
          "internalType": "bool",
          "name": "",
          "type": "bool"
        }
      ],
      "stateMutability": "view",
      "type": "function"
    },
    {
      "inputs": [],
      "name": "name",
      "outputs": [
        {
          "internalType": "string",
          "name": "",
          "type": "string"
        }
      ],
      "stateMutability": "view",
      "type": "function"
    },
    {
      "inputs": [
        {
          "internalType": "uint256",
          "name": "tokenId",
          "type": "uint256"
        }
      ],
      "name": "ownerOf",
      "outputs": [
        {
          "internalType": "address",
          "name": "",
          "type": "address"
        }
      ],
      "stateMutability": "view",
      "type": "function"
    },
    {
      "inputs": [
        {
          "internalType": "address",
          "name": "from",
          "type": "address"
        },
        {
          "internalType": "address",
          "name": "to",
          "type": "address"
        },
        {
          "internalType": "uint256",
          "name": "tokenId",
          "type": "uint256"
        }
      ],
      "name": "safeTransferFrom",
      "outputs": [],
      "stateMutability": "nonpayable",
      "type": "function"
    },
    {
      "inputs": [
        {
          "internalType": "address",
          "name": "from",
          "type": "address"
        },
        {
          "internalType": "address",
          "name": "to",
          "type": "address"
        },
        {
          "internalType": "uint256",
          "name": "tokenId",
          "type": "uint256"
        },
        {
          "internalType": "bytes",
          "name": "data",
          "type": "bytes"
        }
      ],
      "name": "safeTransferFrom",
      "outputs": [],
      "stateMutability": "nonpayable",
      "type": "function"
    },
    {
      "inputs": [
        {
          "internalType": "uint256",
          "name": "",
          "type": "uint256"
        },
        {
          "internalType": "uint256",
          "name": "",
          "type": "uint256"
        }
      ],
      "name": "sellerWarrantyDetails",
      "outputs": [
        {
          "internalType": "uint256",
          "name": "tokenId",
          "type": "uint256"
        },
        {
          "internalType": "bytes32",
          "name": "verifyHash",
          "type": "bytes32"
        },
        {
          "internalType": "uint256",
          "name": "creationTime",
          "type": "uint256"
        },
        {
          "internalType": "string",
          "name": "productId",
          "type": "string"
        },
        {
          "internalType": "string",
          "name": "imageURI",
          "type": "string"
        },
        {
          "internalType": "uint256",
          "name": "expiry",
          "type": "uint256"
        },
        {
          "internalType": "enum NFTWarranty.NFTStatus",
          "name": "status",
          "type": "uint8"
        }
      ],
      "stateMutability": "view",
      "type": "function"
    },
    {
      "inputs": [
        {
          "internalType": "address",
          "name": "operator",
          "type": "address"
        },
        {
          "internalType": "bool",
          "name": "approved",
          "type": "bool"
        }
      ],
      "name": "setApprovalForAll",
      "outputs": [],
      "stateMutability": "nonpayable",
      "type": "function"
    },
    {
      "inputs": [
        {
          "internalType": "bytes4",
          "name": "interfaceId",
          "type": "bytes4"
        }
      ],
      "name": "supportsInterface",
      "outputs": [
        {
          "internalType": "bool",
          "name": "",
          "type": "bool"
        }
      ],
      "stateMutability": "view",
      "type": "function"
    },
    {
      "inputs": [],
      "name": "symbol",
      "outputs": [
        {
          "internalType": "string",
          "name": "",
          "type": "string"
        }
      ],
      "stateMutability": "view",
      "type": "function"
    },
    {
      "inputs": [
        {
          "internalType": "uint256",
          "name": "tokenId",
          "type": "uint256"
        }
      ],
      "name": "tokenURI",
      "outputs": [
        {
          "internalType": "string",
          "name": "",
          "type": "string"
        }
      ],
      "stateMutability": "view",
      "type": "function"
    },
    {
      "inputs": [
        {
          "internalType": "uint256",
          "name": "",
          "type": "uint256"
        },
        {
          "internalType": "uint256",
          "name": "",
          "type": "uint256"
        }
      ],
      "name": "tokenURIList",
      "outputs": [
        {
          "internalType": "string",
          "name": "",
          "type": "string"
        }
      ],
      "stateMutability": "view",
      "type": "function"
    },
    {
      "inputs": [
        {
          "internalType": "uint256",
          "name": "",
          "type": "uint256"
        }
      ],
      "name": "totalSellers",
      "outputs": [
        {
          "internalType": "uint256",
          "name": "",
          "type": "uint256"
        }
      ],
      "stateMutability": "view",
      "type": "function"
    },
    {
      "inputs": [
        {
          "internalType": "address",
          "name": "from",
          "type": "address"
        },
        {
          "internalType": "address",
          "name": "to",
          "type": "address"
        },
        {
          "internalType": "uint256",
          "name": "tokenId",
          "type": "uint256"
        }
      ],
      "name": "transferFrom",
      "outputs": [],
      "stateMutability": "nonpayable",
      "type": "function"
    },
    {
      "inputs": [
        {
          "internalType": "string",
          "name": "productId",
          "type": "string"
        },
        {
          "internalType": "uint256",
          "name": "sellerId",
          "type": "uint256"
        },
        {
          "internalType": "uint256",
          "name": "tokenId",
          "type": "uint256"
        }
      ],
      "name": "verifyOwnership",
      "outputs": [
        {
          "internalType": "bool",
          "name": "",
          "type": "bool"
        }
      ],
      "stateMutability": "nonpayable",
      "type": "function"
    },
    {
      "inputs": [
        {
          "internalType": "uint256",
          "name": "sellerId",
          "type": "uint256"
        },
        {
          "internalType": "uint256",
          "name": "tokenId",
          "type": "uint256"
        }
      ],
      "name": "claimNMint",
      "outputs": [],
      "stateMutability": "nonpayable",
      "type": "function"
    },
    {
      "inputs": [
        {
          "internalType": "uint256",
          "name": "sellerId",
          "type": "uint256"
        }
      ],
      "name": "createSeller",
      "outputs": [],
      "stateMutability": "nonpayable",
      "type": "function"
    },
    {
      "inputs": [
        {
          "internalType": "string",
          "name": "tokenURI",
          "type": "string"
        },
        {
          "internalType": "uint256",
          "name": "sellerId",
          "type": "uint256"
        },
        {
          "internalType": "string",
          "name": "productId",
          "type": "string"
        },
        {
          "internalType": "address",
          "name": "customer",
          "type": "address"
        },
        {
          "internalType": "uint256",
          "name": "expiry",
          "type": "uint256"
        },
        {
          "internalType": "string",
          "name": "imageURI",
          "type": "string"
        }
      ],
      "name": "createNFT",
      "outputs": [],
      "stateMutability": "nonpayable",
      "type": "function"
    },
    {
      "inputs": [
        {
          "internalType": "address",
          "name": "to",
          "type": "address"
        },
        {
          "internalType": "uint256",
          "name": "tokenId",
          "type": "uint256"
        },
        {
          "internalType": "uint256",
          "name": "sellerId",
          "type": "uint256"
        }
      ],
      "name": "resell",
      "outputs": [],
      "stateMutability": "nonpayable",
      "type": "function"
    },
    {
      "inputs": [
        {
          "internalType": "uint256",
          "name": "tokenId",
          "type": "uint256"
        }
      ],
      "name": "burn",
      "outputs": [],
      "stateMutability": "nonpayable",
      "type": "function"
    },
    {
      "inputs": [
        {
          "internalType": "uint256",
          "name": "sellerId",
          "type": "uint256"
        }
      ],
      "name": "getSellerNFTs",
      "outputs": [
        {
          "internalType": "uint256[]",
          "name": "",
          "type": "uint256[]"
        }
      ],
      "stateMutability": "view",
      "type": "function"
    },
    {
      "inputs": [],
      "name": "getSellers",
      "outputs": [
        {
          "internalType": "uint256[]",
          "name": "",
          "type": "uint256[]"
        }
      ],
      "stateMutability": "view",
      "type": "function"
    },
    {
      "inputs": [
        {
          "internalType": "uint256",
          "name": "sellerId",
          "type": "uint256"
        },
        {
          "internalType": "uint256",
          "name": "tokenId",
          "type": "uint256"
        }
      ],
      "name": "getExpiry",
      "outputs": [
        {
          "internalType": "uint256",
          "name": "expiry",
          "type": "uint256"
        }
      ],
      "stateMutability": "view",
      "type": "function"
    },
    {
      "inputs": [
        {
          "internalType": "uint256",
          "name": "sellerId",
          "type": "uint256"
        },
        {
          "internalType": "uint256",
          "name": "tokenId",
          "type": "uint256"
        }
      ],
      "name": "getCreation",
      "outputs": [
        {
          "internalType": "uint256",
          "name": "creation",
          "type": "uint256"
        }
      ],
      "stateMutability": "view",
      "type": "function"
    },
    {
      "inputs": [
        {
          "internalType": "uint256",
          "name": "sellerId",
          "type": "uint256"
        },
        {
          "internalType": "uint256",
          "name": "tokenId",
          "type": "uint256"
        }
      ],
      "name": "getSellerWarrantyDetails",
      "outputs": [
        {
          "components": [
            {
              "internalType": "uint256",
              "name": "tokenId",
              "type": "uint256"
            },
            {
              "internalType": "bytes32",
              "name": "verifyHash",
              "type": "bytes32"
            },
            {
              "internalType": "uint256",
              "name": "creationTime",
              "type": "uint256"
            },
            {
              "internalType": "string",
              "name": "productId",
              "type": "string"
            },
            {
              "internalType": "string",
              "name": "imageURI",
              "type": "string"
            },
            {
              "internalType": "uint256",
              "name": "expiry",
              "type": "uint256"
            },
            {
              "internalType": "address[]",
              "name": "buyers",
              "type": "address[]"
            },
            {
              "internalType": "uint256[]",
              "name": "buyersDate",
              "type": "uint256[]"
            },
            {
              "internalType": "enum NFTWarranty.NFTStatus",
              "name": "status",
              "type": "uint8"
            }
          ],
          "internalType": "struct NFTWarranty.warrantyDetails",
          "name": "",
          "type": "tuple"
        }
      ],
      "stateMutability": "view",
      "type": "function"
    },
    {
      "inputs": [
        {
          "internalType": "address",
          "name": "add",
          "type": "address"
        },
        {
          "internalType": "uint256",
          "name": "index",
          "type": "uint256"
        }
      ],
      "name": "getBuyersCollection",
      "outputs": [
        {
          "internalType": "uint256",
          "name": "",
          "type": "uint256"
        }
      ],
      "stateMutability": "view",
      "type": "function"
    },
    {
      "inputs": [
        {
          "internalType": "uint256",
          "name": "sellerId",
          "type": "uint256"
        },
        {
          "internalType": "uint256",
          "name": "tokenId",
          "type": "uint256"
        }
      ],
      "name": "getStatus",
      "outputs": [
        {
          "internalType": "uint256",
          "name": "stat",
          "type": "uint256"
        }
      ],
      "stateMutability": "view",
      "type": "function"
    },
    {
      "inputs": [
        {
          "internalType": "uint256",
          "name": "sellerId",
          "type": "uint256"
        },
        {
          "internalType": "uint256",
          "name": "Index",
          "type": "uint256"
        }
      ],
      "name": "getSellerNFT",
      "outputs": [
        {
          "internalType": "uint256",
          "name": "",
          "type": "uint256"
        }
      ],
      "stateMutability": "view",
      "type": "function"
    },
    {
      "inputs": [
        {
          "internalType": "uint256",
          "name": "sellerId",
          "type": "uint256"
        }
      ],
      "name": "getSellerNFTSize",
      "outputs": [
        {
          "internalType": "uint256",
          "name": "",
          "type": "uint256"
        }
      ],
      "stateMutability": "view",
      "type": "function"
    }
  ],
  "bytecode": "0x60806040523480156200001157600080fd5b506040518060400160405280601181526020017f4e4654446f636b657457617272616e74790000000000000000000000000000008152506040518060400160405280600581526020017f4e4654445700000000000000000000000000000000000000000000000000000081525081600090816200008f919062000324565b508060019081620000a1919062000324565b5050506200040b565b600081519050919050565b7f4e487b7100000000000000000000000000000000000000000000000000000000600052604160045260246000fd5b7f4e487b7100000000000000000000000000000000000000000000000000000000600052602260045260246000fd5b600060028204905060018216806200012c57607f821691505b602082108103620001425762000141620000e4565b5b50919050565b60008190508160005260206000209050919050565b60006020601f8301049050919050565b600082821b905092915050565b600060088302620001ac7fffffffffffffffffffffffffffffffffffffffffffffffffffffffffffffffff826200016d565b620001b886836200016d565b95508019841693508086168417925050509392505050565b6000819050919050565b6000819050919050565b600062000205620001ff620001f984620001d0565b620001da565b620001d0565b9050919050565b6000819050919050565b6200022183620001e4565b6200023962000230826200020c565b8484546200017a565b825550505050565b600090565b6200025062000241565b6200025d81848462000216565b505050565b5b8181101562000285576200027960008262000246565b60018101905062000263565b5050565b601f821115620002d4576200029e8162000148565b620002a9846200015d565b81016020851015620002b9578190505b620002d1620002c8856200015d565b83018262000262565b50505b505050565b600082821c905092915050565b6000620002f960001984600802620002d9565b1980831691505092915050565b6000620003148383620002e6565b9150826002028217905092915050565b6200032f82620000aa565b67ffffffffffffffff8111156200034b576200034a620000b5565b5b62000357825462000113565b6200036482828562000289565b600060209050601f8311600181146200039c576000841562000387578287015190505b62000393858262000306565b86555062000403565b601f198416620003ac8662000148565b60005b82811015620003d657848901518255600182019150602085019450602081019050620003af565b86831015620003f65784890151620003f2601f891682620002e6565b8355505b6001600288020188555050505b505050505050565b615030806200041b6000396000f3fe608060405234801561001057600080fd5b50600436106102115760003560e01c80637f3b2cf411610125578063b88d4fde116100ad578063e985e9c51161007c578063e985e9c5146106d2578063e9b2c95e14610702578063ed4a4a2414610732578063f5601e4b14610764578063f5a651201461078057610211565b8063b88d4fde1461063a578063c839d38c14610656578063c87b56dd14610672578063d963729d146106a257610211565b806395d89b41116100f457806395d89b411461056a578063a22cb46514610588578063a745da65146105a4578063aa8c7835146105d4578063afbd903a1461060a57610211565b80637f3b2cf4146104be5780637fc5a60f146104da5780638721f9fc1461050a5780639567253f1461053a57610211565b80632d5052d9116101a85780636352211e116101775780636352211e146103e0578063644190b81461041057806369ac439b1461044057806370a08231146104705780637ee454cb146104a057610211565b80632d5052d91461034857806342842e0e1461037857806342966c68146103945780635ccdfa5e146103b057610211565b806315f7b2e5116101e457806315f7b2e5146102b05780631846f582146102e05780631faea033146102fc57806323b872dd1461032c57610211565b806301ffc9a71461021657806306fdde0314610246578063081812fc14610264578063095ea7b314610294575b600080fd5b610230600480360381019061022b91906134c6565b6107b0565b60405161023d919061350e565b60405180910390f35b61024e610892565b60405161025b91906135c2565b60405180910390f35b61027e6004803603810190610279919061361a565b610924565b60405161028b9190613688565b60405180910390f35b6102ae60048036038101906102a991906136cf565b61096a565b005b6102ca60048036038101906102c59190613844565b610a81565b6040516102d7919061350e565b60405180910390f35b6102fa60048036038101906102f591906138b3565b610b3e565b005b610316600480360381019061031191906138b3565b610cb7565b6040516103239190613c23565b60405180910390f35b61034660048036038101906103419190613c45565b610f64565b005b610362600480360381019061035d91906136cf565b610fc4565b60405161036f9190613ca7565b60405180910390f35b610392600480360381019061038d9190613c45565b610ff5565b005b6103ae60048036038101906103a9919061361a565b611015565b005b6103ca60048036038101906103c591906138b3565b6110b9565b6040516103d79190613ca7565b60405180910390f35b6103fa60048036038101906103f5919061361a565b6110f6565b6040516104079190613688565b60405180910390f35b61042a60048036038101906104259190613cc2565b6111a7565b6040516104379190613ca7565b60405180910390f35b61045a6004803603810190610455919061361a565b6111bf565b6040516104679190613d5e565b60405180910390f35b61048a60048036038101906104859190613cc2565b61122d565b6040516104979190613ca7565b60405180910390f35b6104a86112e4565b6040516104b59190613d5e565b60405180910390f35b6104d860048036038101906104d39190613d80565b61133c565b005b6104f460048036038101906104ef91906138b3565b6118e2565b6040516105019190613ca7565b60405180910390f35b610524600480360381019061051f9190613cc2565b611914565b6040516105319190613ca7565b60405180910390f35b610554600480360381019061054f919061361a565b61192c565b6040516105619190613ca7565b60405180910390f35b610572611950565b60405161057f91906135c2565b60405180910390f35b6105a2600480360381019061059d9190613e8d565b6119e2565b005b6105be60048036038101906105b991906138b3565b6119f8565b6040516105cb9190613ca7565b60405180910390f35b6105ee60048036038101906105e991906138b3565b611ba3565b6040516106019796959493929190613eeb565b60405180910390f35b610624600480360381019061061f91906138b3565b611d0f565b60405161063191906135c2565b60405180910390f35b610654600480360381019061064f9190614009565b611dbc565b005b610670600480360381019061066b919061408c565b611e1e565b005b61068c6004803603810190610687919061361a565b611ff4565b60405161069991906135c2565b60405180910390f35b6106bc60048036038101906106b791906138b3565b612106565b6040516106c99190613ca7565b60405180910390f35b6106ec60048036038101906106e791906140df565b612138565b6040516106f9919061350e565b60405180910390f35b61071c600480360381019061071791906136cf565b6121cc565b6040516107299190613ca7565b60405180910390f35b61074c6004803603810190610747919061361a565b612232565b60405161075b9392919061411f565b60405180910390f35b61077e6004803603810190610779919061361a565b61227c565b005b61079a6004803603810190610795919061361a565b612476565b6040516107a79190613ca7565b60405180910390f35b60007f80ac58cd000000000000000000000000000000000000000000000000000000007bffffffffffffffffffffffffffffffffffffffffffffffffffffffff1916827bffffffffffffffffffffffffffffffffffffffffffffffffffffffff1916148061087b57507f5b5e139f000000000000000000000000000000000000000000000000000000007bffffffffffffffffffffffffffffffffffffffffffffffffffffffff1916827bffffffffffffffffffffffffffffffffffffffffffffffffffffffff1916145b8061088b575061088a82612499565b5b9050919050565b6060600080546108a190614185565b80601f01602080910402602001604051908101604052809291908181526020018280546108cd90614185565b801561091a5780601f106108ef5761010080835404028352916020019161091a565b820191906000526020600020905b8154815290600101906020018083116108fd57829003601f168201915b5050505050905090565b600061092f82612503565b6004600083815260200190815260200160002060009054906101000a900473ffffffffffffffffffffffffffffffffffffffff169050919050565b6000610975826110f6565b90508073ffffffffffffffffffffffffffffffffffffffff168373ffffffffffffffffffffffffffffffffffffffff16036109e5576040517f08c379a00000000000000000000000000000000000000000000000000000000081526004016109dc90614228565b60405180910390fd5b8073ffffffffffffffffffffffffffffffffffffffff16610a0461254e565b73ffffffffffffffffffffffffffffffffffffffff161480610a335750610a3281610a2d61254e565b612138565b5b610a72576040517f08c379a0000000000000000000000000000000000000000000000000000000008152600401610a69906142ba565b60405180910390fd5b610a7c8383612556565b505050565b60003384604051602001610a969291906142da565b60405160208183030381529060405280519060200120600a600085815260200190815260200160002060008481526020019081526020016000206001015403610b32576001600a6000858152602001908152602001600020600084815260200190815260200160002060080160006101000a81548160ff02191690836003811115610b2457610b23613ad2565b5b021790555060019050610b37565b600090505b9392505050565b60016003811115610b5257610b51613ad2565b5b600a6000848152602001908152602001600020600083815260200190815260200160002060080160009054906101000a900460ff166003811115610b9957610b98613ad2565b5b14610ba357600080fd5b610bad338261260f565b610c6381600b600085815260200190815260200160002060008481526020019081526020016000208054610be090614185565b80601f0160208091040260200160405190810160405280929190818152602001828054610c0c90614185565b8015610c595780601f10610c2e57610100808354040283529160200191610c59565b820191906000526020600020905b815481529060010190602001808311610c3c57829003601f168201915b50505050506127e8565b6002600a6000848152602001908152602001600020600083815260200190815260200160002060080160006101000a81548160ff02191690836003811115610cae57610cad613ad2565b5b02179055505050565b610cbf613287565b600a6000848152602001908152602001600020600083815260200190815260200160002060405180610120016040529081600082015481526020016001820154815260200160028201548152602001600382018054610d1d90614185565b80601f0160208091040260200160405190810160405280929190818152602001828054610d4990614185565b8015610d965780601f10610d6b57610100808354040283529160200191610d96565b820191906000526020600020905b815481529060010190602001808311610d7957829003601f168201915b50505050508152602001600482018054610daf90614185565b80601f0160208091040260200160405190810160405280929190818152602001828054610ddb90614185565b8015610e285780601f10610dfd57610100808354040283529160200191610e28565b820191906000526020600020905b815481529060010190602001808311610e0b57829003601f168201915b505050505081526020016005820154815260200160068201805480602002602001604051908101604052809291908181526020018280548015610ec057602002820191906000526020600020905b8160009054906101000a900473ffffffffffffffffffffffffffffffffffffffff1673ffffffffffffffffffffffffffffffffffffffff1681526020019060010190808311610e76575b5050505050815260200160078201805480602002602001604051908101604052809291908181526020018280548015610f1857602002820191906000526020600020905b815481526020019060010190808311610f04575b505050505081526020016008820160009054906101000a900460ff166003811115610f4657610f45613ad2565b5b6003811115610f5857610f57613ad2565b5b81525050905092915050565b610f75610f6f61254e565b82612855565b610fb4576040517f08c379a0000000000000000000000000000000000000000000000000000000008152600401610fab9061437c565b60405180910390fd5b610fbf8383836128ea565b505050565b600c6020528160005260406000208181548110610fe057600080fd5b90600052602060002001600091509150505481565b61101083838360405180602001604052806000815250611dbc565b505050565b6000620f42408261102691906143fa565b9050600a600082815260200190815260200160002060008381526020019081526020016000206005015442101561105c57600080fd5b61106582612b50565b6003600a6000838152602001908152602001600020600084815260200190815260200160002060080160006101000a81548160ff021916908360038111156110b0576110af613ad2565b5b02179055505050565b60006009600084815260200190815260200160002060030182815481106110e3576110e261442b565b5b9060005260206000200154905092915050565b6000806002600084815260200190815260200160002060009054906101000a900473ffffffffffffffffffffffffffffffffffffffff169050600073ffffffffffffffffffffffffffffffffffffffff168173ffffffffffffffffffffffffffffffffffffffff160361119e576040517f08c379a0000000000000000000000000000000000000000000000000000000008152600401611195906144a6565b60405180910390fd5b80915050919050565b600d6020528060005260406000206000915090505481565b60606009600083815260200190815260200160002060030180548060200260200160405190810160405280929190818152602001828054801561122157602002820191906000526020600020905b81548152602001906001019080831161120d575b50505050509050919050565b60008073ffffffffffffffffffffffffffffffffffffffff168273ffffffffffffffffffffffffffffffffffffffff160361129d576040517f08c379a000000000000000000000000000000000000000000000000000000000815260040161129490614538565b60405180910390fd5b600360008373ffffffffffffffffffffffffffffffffffffffff1673ffffffffffffffffffffffffffffffffffffffff168152602001908152602001600020549050919050565b6060600780548060200260200160405190810160405280929190818152602001828054801561133257602002820191906000526020600020905b81548152602001906001019080831161131e575b5050505050905090565b6009600086815260200190815260200160002060020160009054906101000a900473ffffffffffffffffffffffffffffffffffffffff1673ffffffffffffffffffffffffffffffffffffffff163373ffffffffffffffffffffffffffffffffffffffff16146113e0576040517f08c379a00000000000000000000000000000000000000000000000000000000081526004016113d7906145a4565b60405180910390fd5b6113e8613287565b4281604001818152505083856040516020016114059291906142da565b6040516020818303038152906040528051906020012081602001818152505082816040015161143491906145c4565b8160a001818152505060006009600088815260200190815260200160002060010154620f4240600960008a81526020019081526020016000206000015461147b919061461a565b61148591906145c4565b905081600a6000898152602001908152602001600020600083815260200190815260200160002060008201518160000155602082015181600101556040820151816002015560608201518160030190816114df9190614820565b5060808201518160040190816114f59190614820565b5060a0820151816005015560c082015181600601908051906020019061151c9291906132e8565b5060e0820151816007019080519060200190611539929190613372565b506101008201518160080160006101000a81548160ff0219169083600381111561156657611565613ad2565b5b021790555090505085600a6000898152602001908152602001600020600083815260200190815260200160002060030190816115a29190614820565b506009600088815260200190815260200160002060030181908060018154018082558091505060019003906000526020600020016000909190919091505580600a6000898152602001908152602001600020600083815260200190815260200160002060000181905550848660405160200161161f9291906142da565b60405160208183030381529060405280519060200120600a600089815260200190815260200160002060008381526020019081526020016000206001018190555082600a6000898152602001908152602001600020600083815260200190815260200160002060040190816116949190614820565b50600a60008881526020019081526020016000206000828152602001908152602001600020600601859080600181540180825580915050600190039060005260206000200160009091909190916101000a81548173ffffffffffffffffffffffffffffffffffffffff021916908373ffffffffffffffffffffffffffffffffffffffff1602179055506000600a6000898152602001908152602001600020600083815260200190815260200160002060080160006101000a81548160ff0219169083600381111561176857611767613ad2565b5b0217905550600a60008881526020019081526020016000206000828152602001908152602001600020600701826040015190806001815401808255809150506001900390600052602060002001600090919091909150556009600088815260200190815260200160002060010160008154809291906117e6906148f2565b9190505550600c60008673ffffffffffffffffffffffffffffffffffffffff1673ffffffffffffffffffffffffffffffffffffffff168152602001908152602001600020819080600181540180825580915050600190039060005260206000200160009091909190915055600d60008673ffffffffffffffffffffffffffffffffffffffff1673ffffffffffffffffffffffffffffffffffffffff16815260200190815260200160002060008154809291906118a1906148f2565b919050555087600b6000898152602001908152602001600020600083815260200190815260200160002090816118d79190614820565b505050505050505050565b6000600a6000848152602001908152602001600020600083815260200190815260200160002060050154905092915050565b60086020528060005260406000206000915090505481565b6007818154811061193c57600080fd5b906000526020600020016000915090505481565b60606001805461195f90614185565b80601f016020809104026020016040519081016040528092919081815260200182805461198b90614185565b80156119d85780601f106119ad576101008083540402835291602001916119d8565b820191906000526020600020905b8154815290600101906020018083116119bb57829003601f168201915b5050505050905090565b6119f46119ed61254e565b8383612ba3565b5050565b6000806003811115611a0d57611a0c613ad2565b5b600a6000858152602001908152602001600020600084815260200190815260200160002060080160009054906101000a900460ff166003811115611a5457611a53613ad2565b5b03611a625760009050611b9d565b60016003811115611a7657611a75613ad2565b5b600a6000858152602001908152602001600020600084815260200190815260200160002060080160009054906101000a900460ff166003811115611abd57611abc613ad2565b5b03611acb5760019050611b9d565b60026003811115611adf57611ade613ad2565b5b600a6000858152602001908152602001600020600084815260200190815260200160002060080160009054906101000a900460ff166003811115611b2657611b25613ad2565b5b03611b345760029050611b9d565b600380811115611b4757611b46613ad2565b5b600a6000858152602001908152602001600020600084815260200190815260200160002060080160009054906101000a900460ff166003811115611b8e57611b8d613ad2565b5b03611b9c5760039050611b9d565b5b92915050565b600a60205281600052604060002060205280600052604060002060009150915050806000015490806001015490806002015490806003018054611be590614185565b80601f0160208091040260200160405190810160405280929190818152602001828054611c1190614185565b8015611c5e5780601f10611c3357610100808354040283529160200191611c5e565b820191906000526020600020905b815481529060010190602001808311611c4157829003601f168201915b505050505090806004018054611c7390614185565b80601f0160208091040260200160405190810160405280929190818152602001828054611c9f90614185565b8015611cec5780601f10611cc157610100808354040283529160200191611cec565b820191906000526020600020905b815481529060010190602001808311611ccf57829003601f168201915b5050505050908060050154908060080160009054906101000a900460ff16905087565b600b602052816000526040600020602052806000526040600020600091509150508054611d3b90614185565b80601f0160208091040260200160405190810160405280929190818152602001828054611d6790614185565b8015611db45780601f10611d8957610100808354040283529160200191611db4565b820191906000526020600020905b815481529060010190602001808311611d9757829003601f168201915b505050505081565b611dcd611dc761254e565b83612855565b611e0c576040517f08c379a0000000000000000000000000000000000000000000000000000000008152600401611e039061437c565b60405180910390fd5b611e1884848484612d0f565b50505050565b3373ffffffffffffffffffffffffffffffffffffffff16611e3e836110f6565b73ffffffffffffffffffffffffffffffffffffffff1614611e94576040517f08c379a0000000000000000000000000000000000000000000000000000000008152600401611e8b90614986565b60405180910390fd5b82600a60008381526020019081526020016000206000848152602001908152602001600020600301604051602001611ecd929190614a2a565b60405160208183030381529060405280519060200120600a6000838152602001908152602001600020600084815260200190815260200160002060010181905550600a60008281526020019081526020016000206000838152602001908152602001600020600601839080600181540180825580915050600190039060005260206000200160009091909190916101000a81548173ffffffffffffffffffffffffffffffffffffffff021916908373ffffffffffffffffffffffffffffffffffffffff160217905550600a60008281526020019081526020016000206000838152602001908152602001600020600701429080600181540180825580915050600190039060005260206000200160009091909190915055611fef3384846128ea565b505050565b6060611fff82612503565b600060066000848152602001908152602001600020805461201f90614185565b80601f016020809104026020016040519081016040528092919081815260200182805461204b90614185565b80156120985780601f1061206d57610100808354040283529160200191612098565b820191906000526020600020905b81548152906001019060200180831161207b57829003601f168201915b5050505050905060006120a9612d6b565b905060008151036120be578192505050612101565b6000825111156120f35780826040516020016120db929190614a96565b60405160208183030381529060405292505050612101565b6120fc84612d82565b925050505b919050565b6000600a6000848152602001908152602001600020600083815260200190815260200160002060020154905092915050565b6000600560008473ffffffffffffffffffffffffffffffffffffffff1673ffffffffffffffffffffffffffffffffffffffff16815260200190815260200160002060008373ffffffffffffffffffffffffffffffffffffffff1673ffffffffffffffffffffffffffffffffffffffff16815260200190815260200160002060009054906101000a900460ff16905092915050565b6000600c60008473ffffffffffffffffffffffffffffffffffffffff1673ffffffffffffffffffffffffffffffffffffffff168152602001908152602001600020828154811061221f5761221e61442b565b5b9060005260206000200154905092915050565b60096020528060005260406000206000915090508060000154908060010154908060020160009054906101000a900473ffffffffffffffffffffffffffffffffffffffff16905083565b600073ffffffffffffffffffffffffffffffffffffffff166009600083815260200190815260200160002060020160009054906101000a900473ffffffffffffffffffffffffffffffffffffffff1673ffffffffffffffffffffffffffffffffffffffff1614612321576040517f08c379a000000000000000000000000000000000000000000000000000000000815260040161231890614b06565b60405180910390fd5b6123296133bf565b8181600001818152505033816040019073ffffffffffffffffffffffffffffffffffffffff16908173ffffffffffffffffffffffffffffffffffffffff168152505060008160200181815250508060096000848152602001908152602001600020600082015181600001556020820151816001015560408201518160020160006101000a81548173ffffffffffffffffffffffffffffffffffffffff021916908373ffffffffffffffffffffffffffffffffffffffff1602179055506060820151816003019080519060200190612401929190613372565b50905050600782908060018154018082558091505060019003906000526020600020016000909190919091505581600860003373ffffffffffffffffffffffffffffffffffffffff1673ffffffffffffffffffffffffffffffffffffffff168152602001908152602001600020819055505050565b600060096000838152602001908152602001600020600301805490509050919050565b60007f01ffc9a7000000000000000000000000000000000000000000000000000000007bffffffffffffffffffffffffffffffffffffffffffffffffffffffff1916827bffffffffffffffffffffffffffffffffffffffffffffffffffffffff1916149050919050565b61250c81612dea565b61254b576040517f08c379a0000000000000000000000000000000000000000000000000000000008152600401612542906144a6565b60405180910390fd5b50565b600033905090565b816004600083815260200190815260200160002060006101000a81548173ffffffffffffffffffffffffffffffffffffffff021916908373ffffffffffffffffffffffffffffffffffffffff160217905550808273ffffffffffffffffffffffffffffffffffffffff166125c9836110f6565b73ffffffffffffffffffffffffffffffffffffffff167f8c5be1e5ebec7d5bd14f71427d1e84f3dd0314c0f7b2291e5b200ac8c7c3b92560405160405180910390a45050565b600073ffffffffffffffffffffffffffffffffffffffff168273ffffffffffffffffffffffffffffffffffffffff160361267e576040517f08c379a000000000000000000000000000000000000000000000000000000000815260040161267590614b72565b60405180910390fd5b61268781612dea565b156126c7576040517f08c379a00000000000000000000000000000000000000000000000000000000081526004016126be90614bde565b60405180910390fd5b6126d360008383612e56565b6001600360008473ffffffffffffffffffffffffffffffffffffffff1673ffffffffffffffffffffffffffffffffffffffff168152602001908152602001600020600082825461272391906145c4565b92505081905550816002600083815260200190815260200160002060006101000a81548173ffffffffffffffffffffffffffffffffffffffff021916908373ffffffffffffffffffffffffffffffffffffffff160217905550808273ffffffffffffffffffffffffffffffffffffffff16600073ffffffffffffffffffffffffffffffffffffffff167fddf252ad1be2c89b69c2b068fc378daa952ba7f163c4a11628f55a4df523b3ef60405160405180910390a46127e460008383612e5b565b5050565b6127f182612dea565b612830576040517f08c379a000000000000000000000000000000000000000000000000000000000815260040161282790614c70565b60405180910390fd5b806006600084815260200190815260200160002090816128509190614820565b505050565b600080612861836110f6565b90508073ffffffffffffffffffffffffffffffffffffffff168473ffffffffffffffffffffffffffffffffffffffff1614806128a357506128a28185612138565b5b806128e157508373ffffffffffffffffffffffffffffffffffffffff166128c984610924565b73ffffffffffffffffffffffffffffffffffffffff16145b91505092915050565b8273ffffffffffffffffffffffffffffffffffffffff1661290a826110f6565b73ffffffffffffffffffffffffffffffffffffffff1614612960576040517f08c379a000000000000000000000000000000000000000000000000000000000815260040161295790614d02565b60405180910390fd5b600073ffffffffffffffffffffffffffffffffffffffff168273ffffffffffffffffffffffffffffffffffffffff16036129cf576040517f08c379a00000000000000000000000000000000000000000000000000000000081526004016129c690614d94565b60405180910390fd5b6129da838383612e56565b6129e5600082612556565b6001600360008573ffffffffffffffffffffffffffffffffffffffff1673ffffffffffffffffffffffffffffffffffffffff1681526020019081526020016000206000828254612a359190614db4565b925050819055506001600360008473ffffffffffffffffffffffffffffffffffffffff1673ffffffffffffffffffffffffffffffffffffffff1681526020019081526020016000206000828254612a8c91906145c4565b92505081905550816002600083815260200190815260200160002060006101000a81548173ffffffffffffffffffffffffffffffffffffffff021916908373ffffffffffffffffffffffffffffffffffffffff160217905550808273ffffffffffffffffffffffffffffffffffffffff168473ffffffffffffffffffffffffffffffffffffffff167fddf252ad1be2c89b69c2b068fc378daa952ba7f163c4a11628f55a4df523b3ef60405160405180910390a4612b4b838383612e5b565b505050565b612b5981612e60565b6000600660008381526020019081526020016000208054612b7990614185565b905014612ba057600660008281526020019081526020016000206000612b9f91906133fd565b5b50565b8173ffffffffffffffffffffffffffffffffffffffff168373ffffffffffffffffffffffffffffffffffffffff1603612c11576040517f08c379a0000000000000000000000000000000000000000000000000000000008152600401612c0890614e34565b60405180910390fd5b80600560008573ffffffffffffffffffffffffffffffffffffffff1673ffffffffffffffffffffffffffffffffffffffff16815260200190815260200160002060008473ffffffffffffffffffffffffffffffffffffffff1673ffffffffffffffffffffffffffffffffffffffff16815260200190815260200160002060006101000a81548160ff0219169083151502179055508173ffffffffffffffffffffffffffffffffffffffff168373ffffffffffffffffffffffffffffffffffffffff167f17307eab39ab6107e8899845ad3d59bd9653f200f220920489ca2b5937696c3183604051612d02919061350e565b60405180910390a3505050565b612d1a8484846128ea565b612d2684848484612f7d565b612d65576040517f08c379a0000000000000000000000000000000000000000000000000000000008152600401612d5c90614ec6565b60405180910390fd5b50505050565b606060405180602001604052806000815250905090565b6060612d8d82612503565b6000612d97612d6b565b90506000815111612db75760405180602001604052806000815250612de2565b80612dc184613104565b604051602001612dd2929190614a96565b6040516020818303038152906040525b915050919050565b60008073ffffffffffffffffffffffffffffffffffffffff166002600084815260200190815260200160002060009054906101000a900473ffffffffffffffffffffffffffffffffffffffff1673ffffffffffffffffffffffffffffffffffffffff1614159050919050565b505050565b505050565b6000612e6b826110f6565b9050612e7981600084612e56565b612e84600083612556565b6001600360008373ffffffffffffffffffffffffffffffffffffffff1673ffffffffffffffffffffffffffffffffffffffff1681526020019081526020016000206000828254612ed49190614db4565b925050819055506002600083815260200190815260200160002060006101000a81549073ffffffffffffffffffffffffffffffffffffffff021916905581600073ffffffffffffffffffffffffffffffffffffffff168273ffffffffffffffffffffffffffffffffffffffff167fddf252ad1be2c89b69c2b068fc378daa952ba7f163c4a11628f55a4df523b3ef60405160405180910390a4612f7981600084612e5b565b5050565b6000612f9e8473ffffffffffffffffffffffffffffffffffffffff16613264565b156130f7578373ffffffffffffffffffffffffffffffffffffffff1663150b7a02612fc761254e565b8786866040518563ffffffff1660e01b8152600401612fe99493929190614f3b565b6020604051808303816000875af192505050801561302557506040513d601f19601f820116820180604052508101906130229190614f9c565b60015b6130a7573d8060008114613055576040519150601f19603f3d011682016040523d82523d6000602084013e61305a565b606091505b50600081510361309f576040517f08c379a000000000000000000000000000000000000000000000000000000000815260040161309690614ec6565b60405180910390fd5b805181602001fd5b63150b7a0260e01b7bffffffffffffffffffffffffffffffffffffffffffffffffffffffff1916817bffffffffffffffffffffffffffffffffffffffffffffffffffffffff1916149150506130fc565b600190505b949350505050565b60606000820361314b576040518060400160405280600181526020017f3000000000000000000000000000000000000000000000000000000000000000815250905061325f565b600082905060005b6000821461317d578080613166906148f2565b915050600a8261317691906143fa565b9150613153565b60008167ffffffffffffffff81111561319957613198613719565b5b6040519080825280601f01601f1916602001820160405280156131cb5781602001600182028036833780820191505090505b5090505b60008514613258576001826131e49190614db4565b9150600a856131f39190614fc9565b60306131ff91906145c4565b60f81b8183815181106132155761321461442b565b5b60200101907effffffffffffffffffffffffffffffffffffffffffffffffffffffffffffff1916908160001a905350600a8561325191906143fa565b94506131cf565b8093505050505b919050565b6000808273ffffffffffffffffffffffffffffffffffffffff163b119050919050565b6040518061012001604052806000815260200160008019168152602001600081526020016060815260200160608152602001600081526020016060815260200160608152602001600060038111156132e2576132e1613ad2565b5b81525090565b828054828255906000526020600020908101928215613361579160200282015b828111156133605782518260006101000a81548173ffffffffffffffffffffffffffffffffffffffff021916908373ffffffffffffffffffffffffffffffffffffffff16021790555091602001919060010190613308565b5b50905061336e919061343d565b5090565b8280548282559060005260206000209081019282156133ae579160200282015b828111156133ad578251825591602001919060010190613392565b5b5090506133bb919061343d565b5090565b60405180608001604052806000815260200160008152602001600073ffffffffffffffffffffffffffffffffffffffff168152602001606081525090565b50805461340990614185565b6000825580601f1061341b575061343a565b601f016020900490600052602060002090810190613439919061343d565b5b50565b5b8082111561345657600081600090555060010161343e565b5090565b6000604051905090565b600080fd5b600080fd5b60007fffffffff0000000000000000000000000000000000000000000000000000000082169050919050565b6134a38161346e565b81146134ae57600080fd5b50565b6000813590506134c08161349a565b92915050565b6000602082840312156134dc576134db613464565b5b60006134ea848285016134b1565b91505092915050565b60008115159050919050565b613508816134f3565b82525050565b600060208201905061352360008301846134ff565b92915050565b600081519050919050565b600082825260208201905092915050565b60005b83811015613563578082015181840152602081019050613548565b83811115613572576000848401525b50505050565b6000601f19601f8301169050919050565b600061359482613529565b61359e8185613534565b93506135ae818560208601613545565b6135b781613578565b840191505092915050565b600060208201905081810360008301526135dc8184613589565b905092915050565b6000819050919050565b6135f7816135e4565b811461360257600080fd5b50565b600081359050613614816135ee565b92915050565b6000602082840312156136305761362f613464565b5b600061363e84828501613605565b91505092915050565b600073ffffffffffffffffffffffffffffffffffffffff82169050919050565b600061367282613647565b9050919050565b61368281613667565b82525050565b600060208201905061369d6000830184613679565b92915050565b6136ac81613667565b81146136b757600080fd5b50565b6000813590506136c9816136a3565b92915050565b600080604083850312156136e6576136e5613464565b5b60006136f4858286016136ba565b925050602061370585828601613605565b9150509250929050565b600080fd5b600080fd5b7f4e487b7100000000000000000000000000000000000000000000000000000000600052604160045260246000fd5b61375182613578565b810181811067ffffffffffffffff821117156137705761376f613719565b5b80604052505050565b600061378361345a565b905061378f8282613748565b919050565b600067ffffffffffffffff8211156137af576137ae613719565b5b6137b882613578565b9050602081019050919050565b82818337600083830152505050565b60006137e76137e284613794565b613779565b90508281526020810184848401111561380357613802613714565b5b61380e8482856137c5565b509392505050565b600082601f83011261382b5761382a61370f565b5b813561383b8482602086016137d4565b91505092915050565b60008060006060848603121561385d5761385c613464565b5b600084013567ffffffffffffffff81111561387b5761387a613469565b5b61388786828701613816565b935050602061389886828701613605565b92505060406138a986828701613605565b9150509250925092565b600080604083850312156138ca576138c9613464565b5b60006138d885828601613605565b92505060206138e985828601613605565b9150509250929050565b6138fc816135e4565b82525050565b6000819050919050565b61391581613902565b82525050565b600082825260208201905092915050565b600061393782613529565b613941818561391b565b9350613951818560208601613545565b61395a81613578565b840191505092915050565b600081519050919050565b600082825260208201905092915050565b6000819050602082019050919050565b61399a81613667565b82525050565b60006139ac8383613991565b60208301905092915050565b6000602082019050919050565b60006139d082613965565b6139da8185613970565b93506139e583613981565b8060005b83811015613a165781516139fd88826139a0565b9750613a08836139b8565b9250506001810190506139e9565b5085935050505092915050565b600081519050919050565b600082825260208201905092915050565b6000819050602082019050919050565b6000613a5b83836138f3565b60208301905092915050565b6000602082019050919050565b6000613a7f82613a23565b613a898185613a2e565b9350613a9483613a3f565b8060005b83811015613ac5578151613aac8882613a4f565b9750613ab783613a67565b925050600181019050613a98565b5085935050505092915050565b7f4e487b7100000000000000000000000000000000000000000000000000000000600052602160045260246000fd5b60048110613b1257613b11613ad2565b5b50565b6000819050613b2382613b01565b919050565b6000613b3382613b15565b9050919050565b613b4381613b28565b82525050565b600061012083016000830151613b6260008601826138f3565b506020830151613b75602086018261390c565b506040830151613b8860408601826138f3565b5060608301518482036060860152613ba0828261392c565b91505060808301518482036080860152613bba828261392c565b91505060a0830151613bcf60a08601826138f3565b5060c083015184820360c0860152613be782826139c5565b91505060e083015184820360e0860152613c018282613a74565b915050610100830151613c18610100860182613b3a565b508091505092915050565b60006020820190508181036000830152613c3d8184613b49565b905092915050565b600080600060608486031215613c5e57613c5d613464565b5b6000613c6c868287016136ba565b9350506020613c7d868287016136ba565b9250506040613c8e86828701613605565b9150509250925092565b613ca1816135e4565b82525050565b6000602082019050613cbc6000830184613c98565b92915050565b600060208284031215613cd857613cd7613464565b5b6000613ce6848285016136ba565b91505092915050565b600082825260208201905092915050565b6000613d0b82613a23565b613d158185613cef565b9350613d2083613a3f565b8060005b83811015613d51578151613d388882613a4f565b9750613d4383613a67565b925050600181019050613d24565b5085935050505092915050565b60006020820190508181036000830152613d788184613d00565b905092915050565b60008060008060008060c08789031215613d9d57613d9c613464565b5b600087013567ffffffffffffffff811115613dbb57613dba613469565b5b613dc789828a01613816565b9650506020613dd889828a01613605565b955050604087013567ffffffffffffffff811115613df957613df8613469565b5b613e0589828a01613816565b9450506060613e1689828a016136ba565b9350506080613e2789828a01613605565b92505060a087013567ffffffffffffffff811115613e4857613e47613469565b5b613e5489828a01613816565b9150509295509295509295565b613e6a816134f3565b8114613e7557600080fd5b50565b600081359050613e8781613e61565b92915050565b60008060408385031215613ea457613ea3613464565b5b6000613eb2858286016136ba565b9250506020613ec385828601613e78565b9150509250929050565b613ed681613902565b82525050565b613ee581613b28565b82525050565b600060e082019050613f00600083018a613c98565b613f0d6020830189613ecd565b613f1a6040830188613c98565b8181036060830152613f2c8187613589565b90508181036080830152613f408186613589565b9050613f4f60a0830185613c98565b613f5c60c0830184613edc565b98975050505050505050565b600067ffffffffffffffff821115613f8357613f82613719565b5b613f8c82613578565b9050602081019050919050565b6000613fac613fa784613f68565b613779565b905082815260208101848484011115613fc857613fc7613714565b5b613fd38482856137c5565b509392505050565b600082601f830112613ff057613fef61370f565b5b8135614000848260208601613f99565b91505092915050565b6000806000806080858703121561402357614022613464565b5b6000614031878288016136ba565b9450506020614042878288016136ba565b935050604061405387828801613605565b925050606085013567ffffffffffffffff81111561407457614073613469565b5b61408087828801613fdb565b91505092959194509250565b6000806000606084860312156140a5576140a4613464565b5b60006140b3868287016136ba565b93505060206140c486828701613605565b92505060406140d586828701613605565b9150509250925092565b600080604083850312156140f6576140f5613464565b5b6000614104858286016136ba565b9250506020614115858286016136ba565b9150509250929050565b60006060820190506141346000830186613c98565b6141416020830185613c98565b61414e6040830184613679565b949350505050565b7f4e487b7100000000000000000000000000000000000000000000000000000000600052602260045260246000fd5b6000600282049050600182168061419d57607f821691505b6020821081036141b0576141af614156565b5b50919050565b7f4552433732313a20617070726f76616c20746f2063757272656e74206f776e6560008201527f7200000000000000000000000000000000000000000000000000000000000000602082015250565b6000614212602183613534565b915061421d826141b6565b604082019050919050565b6000602082019050818103600083015261424181614205565b9050919050565b7f4552433732313a20617070726f76652063616c6c6572206973206e6f7420746f60008201527f6b656e206f776e6572206e6f7220617070726f76656420666f7220616c6c0000602082015250565b60006142a4603e83613534565b91506142af82614248565b604082019050919050565b600060208201905081810360008301526142d381614297565b9050919050565b60006040820190506142ef6000830185613679565b81810360208301526143018184613589565b90509392505050565b7f4552433732313a2063616c6c6572206973206e6f7420746f6b656e206f776e6560008201527f72206e6f7220617070726f766564000000000000000000000000000000000000602082015250565b6000614366602e83613534565b91506143718261430a565b604082019050919050565b6000602082019050818103600083015261439581614359565b9050919050565b7f4e487b7100000000000000000000000000000000000000000000000000000000600052601260045260246000fd5b7f4e487b7100000000000000000000000000000000000000000000000000000000600052601160045260246000fd5b6000614405826135e4565b9150614410836135e4565b9250826144205761441f61439c565b5b828204905092915050565b7f4e487b7100000000000000000000000000000000000000000000000000000000600052603260045260246000fd5b7f4552433732313a20696e76616c696420746f6b656e2049440000000000000000600082015250565b6000614490601883613534565b915061449b8261445a565b602082019050919050565b600060208201905081810360008301526144bf81614483565b9050919050565b7f4552433732313a2061646472657373207a65726f206973206e6f74206120766160008201527f6c6964206f776e65720000000000000000000000000000000000000000000000602082015250565b6000614522602983613534565b915061452d826144c6565b604082019050919050565b6000602082019050818103600083015261455181614515565b9050919050565b7f4d757374206265206f776e657200000000000000000000000000000000000000600082015250565b600061458e600d83613534565b915061459982614558565b602082019050919050565b600060208201905081810360008301526145bd81614581565b9050919050565b60006145cf826135e4565b91506145da836135e4565b9250827fffffffffffffffffffffffffffffffffffffffffffffffffffffffffffffffff0382111561460f5761460e6143cb565b5b828201905092915050565b6000614625826135e4565b9150614630836135e4565b9250817fffffffffffffffffffffffffffffffffffffffffffffffffffffffffffffffff0483118215151615614669576146686143cb565b5b828202905092915050565b60008190508160005260206000209050919050565b60006020601f8301049050919050565b600082821b905092915050565b6000600883026146d67fffffffffffffffffffffffffffffffffffffffffffffffffffffffffffffffff82614699565b6146e08683614699565b95508019841693508086168417925050509392505050565b6000819050919050565b600061471d614718614713846135e4565b6146f8565b6135e4565b9050919050565b6000819050919050565b61473783614702565b61474b61474382614724565b8484546146a6565b825550505050565b600090565b614760614753565b61476b81848461472e565b505050565b5b8181101561478f57614784600082614758565b600181019050614771565b5050565b601f8211156147d4576147a581614674565b6147ae84614689565b810160208510156147bd578190505b6147d16147c985614689565b830182614770565b50505b505050565b600082821c905092915050565b60006147f7600019846008026147d9565b1980831691505092915050565b600061481083836147e6565b9150826002028217905092915050565b61482982613529565b67ffffffffffffffff81111561484257614841613719565b5b61484c8254614185565b614857828285614793565b600060209050601f83116001811461488a5760008415614878578287015190505b6148828582614804565b8655506148ea565b601f19841661489886614674565b60005b828110156148c05784890151825560018201915060208501945060208101905061489b565b868310156148dd57848901516148d9601f8916826147e6565b8355505b6001600288020188555050505b505050505050565b60006148fd826135e4565b91507fffffffffffffffffffffffffffffffffffffffffffffffffffffffffffffffff820361492f5761492e6143cb565b5b600182019050919050565b7f4e6f74204f776e65720000000000000000000000000000000000000000000000600082015250565b6000614970600983613534565b915061497b8261493a565b602082019050919050565b6000602082019050818103600083015261499f81614963565b9050919050565b600081546149b381614185565b6149bd8186613534565b945060018216600081146149d857600181146149ee57614a21565b60ff198316865281151560200286019350614a21565b6149f785614674565b60005b83811015614a19578154818901526001820191506020810190506149fa565b808801955050505b50505092915050565b6000604082019050614a3f6000830185613679565b8181036020830152614a5181846149a6565b90509392505050565b600081905092915050565b6000614a7082613529565b614a7a8185614a5a565b9350614a8a818560208601613545565b80840191505092915050565b6000614aa28285614a65565b9150614aae8284614a65565b91508190509392505050565b7f53656c6c657220416c7265616479206578697374000000000000000000000000600082015250565b6000614af0601483613534565b9150614afb82614aba565b602082019050919050565b60006020820190508181036000830152614b1f81614ae3565b9050919050565b7f4552433732313a206d696e7420746f20746865207a65726f2061646472657373600082015250565b6000614b5c602083613534565b9150614b6782614b26565b602082019050919050565b60006020820190508181036000830152614b8b81614b4f565b9050919050565b7f4552433732313a20746f6b656e20616c7265616479206d696e74656400000000600082015250565b6000614bc8601c83613534565b9150614bd382614b92565b602082019050919050565b60006020820190508181036000830152614bf781614bbb565b9050919050565b7f45524337323155524953746f726167653a2055524920736574206f66206e6f6e60008201527f6578697374656e7420746f6b656e000000000000000000000000000000000000602082015250565b6000614c5a602e83613534565b9150614c6582614bfe565b604082019050919050565b60006020820190508181036000830152614c8981614c4d565b9050919050565b7f4552433732313a207472616e736665722066726f6d20696e636f72726563742060008201527f6f776e6572000000000000000000000000000000000000000000000000000000602082015250565b6000614cec602583613534565b9150614cf782614c90565b604082019050919050565b60006020820190508181036000830152614d1b81614cdf565b9050919050565b7f4552433732313a207472616e7366657220746f20746865207a65726f2061646460008201527f7265737300000000000000000000000000000000000000000000000000000000602082015250565b6000614d7e602483613534565b9150614d8982614d22565b604082019050919050565b60006020820190508181036000830152614dad81614d71565b9050919050565b6000614dbf826135e4565b9150614dca836135e4565b925082821015614ddd57614ddc6143cb565b5b828203905092915050565b7f4552433732313a20617070726f766520746f2063616c6c657200000000000000600082015250565b6000614e1e601983613534565b9150614e2982614de8565b602082019050919050565b60006020820190508181036000830152614e4d81614e11565b9050919050565b7f4552433732313a207472616e7366657220746f206e6f6e20455243373231526560008201527f63656976657220696d706c656d656e7465720000000000000000000000000000602082015250565b6000614eb0603283613534565b9150614ebb82614e54565b604082019050919050565b60006020820190508181036000830152614edf81614ea3565b9050919050565b600081519050919050565b600082825260208201905092915050565b6000614f0d82614ee6565b614f178185614ef1565b9350614f27818560208601613545565b614f3081613578565b840191505092915050565b6000608082019050614f506000830187613679565b614f5d6020830186613679565b614f6a6040830185613c98565b8181036060830152614f7c8184614f02565b905095945050505050565b600081519050614f968161349a565b92915050565b600060208284031215614fb257614fb1613464565b5b6000614fc084828501614f87565b91505092915050565b6000614fd4826135e4565b9150614fdf836135e4565b925082614fef57614fee61439c565b5b82820690509291505056fea2646970667358221220b3453b391197fdff13f973417bae84e082c4beeb61868638204f150c424d20fe64736f6c634300080f0033",
  "immutableReferences": {},
  "source": "// SPDX-License-Identifier: GPL-3.0\r\npragma solidity ^0.8.7;\r\n\r\nimport \"@openzeppelin/contracts/token/ERC721/extensions/ERC721URIStorage.sol\";\r\nimport \"@openzeppelin/contracts/utils/Counters.sol\";\r\n\r\ncontract NFTWarranty is ERC721URIStorage {\r\n    //using Counters for Counters.Counter;\r\n    //Counters.Counter private _tokenIds;\r\n\r\n        constructor() ERC721(\"NFTDocketWarranty\", \"NFTDW\") {}\r\n\r\n     struct seller{\r\n        uint256 id;\r\n        uint256 itemCounter;\r\n        address owner;\r\n        uint256 [] allNFTs;\r\n        //string tokenURI;\r\n     \r\n    }\r\n     struct warrantyDetails{\r\n        uint256 tokenId;\r\n        bytes32 verifyHash;\r\n        uint256 creationTime;\r\n        string  productId;\r\n        string imageURI;\r\n        uint256 expiry;\r\n        address[]buyers;\r\n        uint256[]buyersDate;\r\n        NFTStatus status;\r\n    }\r\n    //verify ownership\r\n    enum NFTStatus{\r\n        Pending,\r\n        Verified,\r\n        Active,\r\n        Expired\r\n    }\r\n    \r\n    uint256 [] public totalSellers;\r\n    mapping (address=>uint256) public addressToSellerId;\r\n    mapping(uint256=>seller) public allSellers;\r\n    mapping(uint256=>mapping(uint256=>warrantyDetails)) public sellerWarrantyDetails;\r\n    mapping(uint256=>mapping(uint256=>string)) public tokenURIList;\r\n    mapping (address=>uint256[]) public buyersCollection;\r\n    mapping (address=>uint256) public buyersCount;\r\n\r\n    function verifyOwnership(string memory productId,uint256 sellerId,uint256 tokenId)public returns(bool){\r\n        //require(sellerWarrantyDetails[sellerId][tokenId].verifyHash!=bytes32(0x0),\"Item doesn't Exist\");\r\n        \r\n        if(sellerWarrantyDetails[sellerId][tokenId].verifyHash==keccak256(abi.encode(msg.sender,productId))){\r\n            sellerWarrantyDetails[sellerId][tokenId].status = NFTStatus.Verified;\r\n            return true;\r\n            \r\n        }\r\n        else return false;\r\n    }\r\n    function claimNMint(uint256 sellerId,uint256 tokenId)public {\r\n        require(sellerWarrantyDetails[sellerId][tokenId].status == NFTStatus.Verified);\r\n        _mint(msg.sender,tokenId);\r\n        _setTokenURI(tokenId,tokenURIList[sellerId][tokenId]); \r\n        sellerWarrantyDetails[sellerId][tokenId].status =  NFTStatus.Active;\r\n \r\n\r\n    }\r\n    function createSeller(uint256 sellerId) public{\r\n        require(allSellers[sellerId].owner==address(0x0),\"Seller Already exist\");\r\n         seller memory newSeller;\r\n         newSeller.id = sellerId;\r\n         newSeller.owner = msg.sender;\r\n         newSeller.itemCounter = 0;\r\n         allSellers[sellerId] = newSeller;\r\n         totalSellers.push(sellerId);\r\n         addressToSellerId[msg.sender] = sellerId;\r\n\r\n    }\r\n    function createNFT(string memory tokenURI,uint256 sellerId,string memory productId,address customer,uint256 expiry,string memory imageURI)public{\r\n      //require(tokenURIList[sellerId][allSellers[sellerId].itemCounter].length==0,\"\");\r\n\r\n      require(msg.sender== allSellers[sellerId].owner,\"Must be owner\");\r\n      warrantyDetails memory newNFT;\r\n\r\n      newNFT.creationTime = block.timestamp;\r\n      newNFT.verifyHash = keccak256(abi.encode(customer,productId));\r\n      newNFT.expiry =  newNFT.creationTime + expiry;\r\n        \r\n      uint256 Id = allSellers[sellerId].id*1000000+allSellers[sellerId].itemCounter;\r\n       sellerWarrantyDetails[sellerId][Id]=newNFT;\r\n        sellerWarrantyDetails[sellerId][Id].productId = productId;\r\n      allSellers[sellerId].allNFTs.push(Id);\r\n      sellerWarrantyDetails[sellerId][Id].tokenId = Id;\r\n      sellerWarrantyDetails[sellerId][Id].verifyHash = keccak256(abi.encode(customer,productId));\r\n      sellerWarrantyDetails[sellerId][Id].imageURI = imageURI;\r\n      sellerWarrantyDetails[sellerId][Id].buyers.push(customer);\r\n      sellerWarrantyDetails[sellerId][Id].status =  NFTStatus.Pending;\r\n      sellerWarrantyDetails[sellerId][Id].buyersDate.push(newNFT.creationTime);\r\n      allSellers[sellerId].itemCounter++;\r\n      buyersCollection[customer].push(Id);\r\n      buyersCount[customer]++;\r\n\r\n      tokenURIList[sellerId][Id]=tokenURI;\r\n        \r\n    }\r\n    function resell(address to,uint256 tokenId,uint256 sellerId)public{\r\n       require( ownerOf(tokenId)==msg.sender,\"Not Owner\");\r\n      sellerWarrantyDetails[sellerId][tokenId].verifyHash = keccak256(abi.encode(to, sellerWarrantyDetails[sellerId][tokenId].productId));\r\n      sellerWarrantyDetails[sellerId][tokenId].buyers.push(to);\r\n      sellerWarrantyDetails[sellerId][tokenId].buyersDate.push(block.timestamp);\r\n\r\n            _transfer(msg.sender,to,tokenId);\r\n    }\r\n\r\n       function burn(uint256 tokenId)external{\r\n        uint256 sellerId = tokenId/1000000;\r\n        require(block.timestamp>=sellerWarrantyDetails[sellerId][tokenId].expiry);\r\n        _burn(tokenId);\r\n        sellerWarrantyDetails[sellerId][tokenId].status =  NFTStatus.Expired;\r\n\r\n    }\r\n\r\n\r\n    //READ Functions\r\n\r\n    \r\n \r\n    function getSellerNFTs(uint256 sellerId) external view returns(uint256[]memory){\r\n        return allSellers[sellerId].allNFTs;\r\n    }\r\n\r\n    function getSellers() external view returns(uint256[]memory){\r\n        return totalSellers;\r\n    }\r\n    function getExpiry (uint256 sellerId,uint256 tokenId)external view returns (uint256 expiry){\r\n        return sellerWarrantyDetails[sellerId][tokenId].expiry;\r\n    }\r\n      function getCreation (uint256 sellerId,uint256 tokenId)external view returns (uint256 creation){\r\n        return sellerWarrantyDetails[sellerId][tokenId].creationTime;\r\n    }\r\n    function getSellerWarrantyDetails(uint256 sellerId,uint256 tokenId)public view returns(warrantyDetails memory){\r\n        return sellerWarrantyDetails[sellerId][tokenId] ;\r\n\r\n    }\r\n     function getBuyersCollection(address add,uint256 index)public view returns(uint256){\r\n        return buyersCollection[add][index];\r\n     }\r\n\r\n      function getStatus (uint256 sellerId,uint256 tokenId)external view returns (uint256 stat){\r\n       if (sellerWarrantyDetails[sellerId][tokenId].status == NFTStatus.Pending)\r\n       {\r\n        return 0;\r\n       }\r\n       if (sellerWarrantyDetails[sellerId][tokenId].status == NFTStatus.Verified){\r\n        return 1;\r\n       }\r\n        if (sellerWarrantyDetails[sellerId][tokenId].status == NFTStatus.Active){\r\n        return 2;\r\n       }\r\n          if (sellerWarrantyDetails[sellerId][tokenId].status == NFTStatus.Expired){\r\n        return 3;\r\n       }\r\n    }\r\n    function getSellerNFT(uint256 sellerId,uint256 Index)external view returns(uint256){\r\n        return allSellers[sellerId].allNFTs[Index];\r\n    }\r\n    function getSellerNFTSize(uint256 sellerId)external view returns(uint256){\r\n        return allSellers[sellerId].allNFTs.length;\r\n    }\r\n\r\n\r\n\r\n}\r\n ",
  "sourcePath": "D:\\OpenSource\\BlockChain\\Projects\\nft-warranty-market\\contracts\\NFTWarranty.sol",
  "compiler": {
    "name": "solc",
    "version": "0.8.15+commit.e14f2714.Emscripten.clang"
  },
  "schemaVersion": "3.4.8",
  "updatedAt": "2022-07-31T13:37:13.672Z",
  "devdoc": {
    "kind": "dev",
    "methods": {
      "approve(address,uint256)": {
        "details": "See {IERC721-approve}."
      },
      "balanceOf(address)": {
        "details": "See {IERC721-balanceOf}."
      },
      "getApproved(uint256)": {
        "details": "See {IERC721-getApproved}."
      },
      "isApprovedForAll(address,address)": {
        "details": "See {IERC721-isApprovedForAll}."
      },
      "name()": {
        "details": "See {IERC721Metadata-name}."
      },
      "ownerOf(uint256)": {
        "details": "See {IERC721-ownerOf}."
      },
      "safeTransferFrom(address,address,uint256)": {
        "details": "See {IERC721-safeTransferFrom}."
      },
      "safeTransferFrom(address,address,uint256,bytes)": {
        "details": "See {IERC721-safeTransferFrom}."
      },
      "setApprovalForAll(address,bool)": {
        "details": "See {IERC721-setApprovalForAll}."
      },
      "supportsInterface(bytes4)": {
        "details": "See {IERC165-supportsInterface}."
      },
      "symbol()": {
        "details": "See {IERC721Metadata-symbol}."
      },
      "tokenURI(uint256)": {
        "details": "See {IERC721Metadata-tokenURI}."
      },
      "transferFrom(address,address,uint256)": {
        "details": "See {IERC721-transferFrom}."
      }
    },
    "version": 1
  },
  "userdoc": {
    "kind": "user",
    "methods": {},
    "version": 1
  }
}